{
  "_format": "hh-sol-artifact-1",
  "contractName": "TeenPattiGame",
  "sourceName": "contracts/TeenPattiGame.sol",
  "abi": [
    {
      "inputs": [
        {
          "internalType": "address",
          "name": "_token",
          "type": "address"
        },
        {
          "internalType": "address",
          "name": "_treasury",
          "type": "address"
        }
      ],
      "stateMutability": "nonpayable",
      "type": "constructor"
    },
    {
      "inputs": [],
      "name": "EnforcedPause",
      "type": "error"
    },
    {
      "inputs": [],
      "name": "ExpectedPause",
      "type": "error"
    },
    {
      "inputs": [
        {
          "internalType": "address",
          "name": "owner",
          "type": "address"
        }
      ],
      "name": "OwnableInvalidOwner",
      "type": "error"
    },
    {
      "inputs": [
        {
          "internalType": "address",
          "name": "account",
          "type": "address"
        }
      ],
      "name": "OwnableUnauthorizedAccount",
      "type": "error"
    },
    {
      "inputs": [],
      "name": "ReentrancyGuardReentrantCall",
      "type": "error"
    },
    {
      "anonymous": false,
      "inputs": [
        {
          "indexed": true,
          "internalType": "bytes32",
          "name": "roomId",
          "type": "bytes32"
        },
        {
          "indexed": true,
          "internalType": "address",
          "name": "player",
          "type": "address"
        },
        {
          "indexed": false,
          "internalType": "uint256",
          "name": "amount",
          "type": "uint256"
        }
      ],
      "name": "BetPlaced",
      "type": "event"
    },
    {
      "anonymous": false,
      "inputs": [
        {
          "indexed": true,
          "internalType": "bytes32",
          "name": "roomId",
          "type": "bytes32"
        },
        {
          "indexed": false,
          "internalType": "address[]",
          "name": "players",
          "type": "address[]"
        },
        {
          "indexed": false,
          "internalType": "uint256[]",
          "name": "payouts",
          "type": "uint256[]"
        },
        {
          "indexed": false,
          "internalType": "uint256",
          "name": "rake",
          "type": "uint256"
        }
      ],
      "name": "CashGameSettled",
      "type": "event"
    },
    {
      "anonymous": false,
      "inputs": [
        {
          "indexed": true,
          "internalType": "bytes32",
          "name": "roomId",
          "type": "bytes32"
        },
        {
          "indexed": true,
          "internalType": "address",
          "name": "player",
          "type": "address"
        },
        {
          "indexed": false,
          "internalType": "uint256",
          "name": "amount",
          "type": "uint256"
        }
      ],
      "name": "EmergencyWithdraw",
      "type": "event"
    },
    {
      "anonymous": false,
      "inputs": [
        {
          "indexed": true,
          "internalType": "bytes32",
          "name": "roomId",
          "type": "bytes32"
        },
        {
          "indexed": false,
          "internalType": "uint256",
          "name": "pot",
          "type": "uint256"
        },
        {
          "indexed": false,
          "internalType": "uint256",
          "name": "playerCount",
          "type": "uint256"
        }
      ],
      "name": "GameStarted",
      "type": "event"
    },
    {
      "anonymous": false,
      "inputs": [
        {
          "indexed": true,
          "internalType": "address",
          "name": "previousOwner",
          "type": "address"
        },
        {
          "indexed": true,
          "internalType": "address",
          "name": "newOwner",
          "type": "address"
        }
      ],
      "name": "OwnershipTransferred",
      "type": "event"
    },
    {
      "anonymous": false,
      "inputs": [
        {
          "indexed": false,
          "internalType": "address",
          "name": "account",
          "type": "address"
        }
      ],
      "name": "Paused",
      "type": "event"
    },
    {
      "anonymous": false,
      "inputs": [
        {
          "indexed": true,
          "internalType": "bytes32",
          "name": "roomId",
          "type": "bytes32"
        },
        {
          "indexed": true,
          "internalType": "address",
          "name": "player",
          "type": "address"
        },
        {
          "indexed": false,
          "internalType": "uint256",
          "name": "buyIn",
          "type": "uint256"
        }
      ],
      "name": "PlayerJoined",
      "type": "event"
    },
    {
      "anonymous": false,
      "inputs": [
        {
          "indexed": true,
          "internalType": "bytes32",
          "name": "roomId",
          "type": "bytes32"
        },
        {
          "indexed": true,
          "internalType": "address",
          "name": "player",
          "type": "address"
        },
        {
          "indexed": false,
          "internalType": "uint256",
          "name": "refund",
          "type": "uint256"
        }
      ],
      "name": "PlayerLeft",
      "type": "event"
    },
    {
      "anonymous": false,
      "inputs": [
        {
          "indexed": false,
          "internalType": "uint256",
          "name": "newRakeFee",
          "type": "uint256"
        }
      ],
      "name": "RakeFeeUpdated",
      "type": "event"
    },
    {
      "anonymous": false,
      "inputs": [
        {
          "indexed": true,
          "internalType": "bytes32",
          "name": "roomId",
          "type": "bytes32"
        }
      ],
      "name": "RoomClosed",
      "type": "event"
    },
    {
      "anonymous": false,
      "inputs": [
        {
          "indexed": true,
          "internalType": "bytes32",
          "name": "roomId",
          "type": "bytes32"
        },
        {
          "indexed": true,
          "internalType": "address",
          "name": "creator",
          "type": "address"
        },
        {
          "indexed": false,
          "internalType": "uint256",
          "name": "buyIn",
          "type": "uint256"
        },
        {
          "indexed": false,
          "internalType": "uint256",
          "name": "maxPlayers",
          "type": "uint256"
        }
      ],
      "name": "RoomCreated",
      "type": "event"
    },
    {
      "anonymous": false,
      "inputs": [
        {
          "indexed": true,
          "internalType": "address",
          "name": "newTreasury",
          "type": "address"
        }
      ],
      "name": "TreasuryUpdated",
      "type": "event"
    },
    {
      "anonymous": false,
      "inputs": [
        {
          "indexed": false,
          "internalType": "address",
          "name": "account",
          "type": "address"
        }
      ],
      "name": "Unpaused",
      "type": "event"
    },
    {
      "anonymous": false,
      "inputs": [
        {
          "indexed": true,
          "internalType": "bytes32",
          "name": "roomId",
          "type": "bytes32"
        },
        {
          "indexed": true,
          "internalType": "address",
          "name": "winner",
          "type": "address"
        },
        {
          "indexed": false,
          "internalType": "uint256",
          "name": "amount",
          "type": "uint256"
        },
        {
          "indexed": false,
          "internalType": "uint256",
          "name": "rake",
          "type": "uint256"
        }
      ],
      "name": "WinnerDeclared",
      "type": "event"
    },
    {
      "inputs": [],
      "name": "GAME_TIMEOUT",
      "outputs": [
        {
          "internalType": "uint256",
          "name": "",
          "type": "uint256"
        }
      ],
      "stateMutability": "view",
      "type": "function"
    },
    {
      "inputs": [
        {
          "internalType": "uint256",
          "name": "",
          "type": "uint256"
        }
      ],
      "name": "activeRoomIds",
      "outputs": [
        {
          "internalType": "bytes32",
          "name": "",
          "type": "bytes32"
        }
      ],
      "stateMutability": "view",
      "type": "function"
    },
    {
      "inputs": [
        {
          "internalType": "bytes32",
          "name": "_roomId",
          "type": "bytes32"
        }
      ],
      "name": "closeRoom",
      "outputs": [],
      "stateMutability": "nonpayable",
      "type": "function"
    },
    {
      "inputs": [
        {
          "internalType": "uint256",
          "name": "_buyIn",
          "type": "uint256"
        },
        {
          "internalType": "uint256",
          "name": "_maxPlayers",
          "type": "uint256"
        }
      ],
      "name": "createRoom",
      "outputs": [
        {
          "internalType": "bytes32",
          "name": "",
          "type": "bytes32"
        }
      ],
      "stateMutability": "nonpayable",
      "type": "function"
    },
    {
      "inputs": [
        {
          "internalType": "bytes32",
          "name": "_roomId",
          "type": "bytes32"
        },
        {
          "internalType": "address",
          "name": "_winner",
          "type": "address"
        }
      ],
      "name": "declareWinner",
      "outputs": [],
      "stateMutability": "nonpayable",
      "type": "function"
    },
    {
      "inputs": [
        {
          "internalType": "bytes32",
          "name": "_roomId",
          "type": "bytes32"
        }
      ],
      "name": "emergencyWithdraw",
      "outputs": [],
      "stateMutability": "nonpayable",
      "type": "function"
    },
    {
      "inputs": [],
      "name": "getActiveRooms",
      "outputs": [
        {
          "internalType": "bytes32[]",
          "name": "",
          "type": "bytes32[]"
        }
      ],
      "stateMutability": "view",
      "type": "function"
    },
    {
      "inputs": [
        {
          "internalType": "bytes32",
          "name": "_roomId",
          "type": "bytes32"
        },
        {
          "internalType": "address",
          "name": "_player",
          "type": "address"
        }
      ],
      "name": "getPlayerBalance",
      "outputs": [
        {
          "internalType": "uint256",
          "name": "",
          "type": "uint256"
        }
      ],
      "stateMutability": "view",
      "type": "function"
    },
    {
      "inputs": [
        {
          "internalType": "address",
          "name": "_player",
          "type": "address"
        }
      ],
      "name": "getPlayerRooms",
      "outputs": [
        {
          "internalType": "bytes32[]",
          "name": "",
          "type": "bytes32[]"
        }
      ],
      "stateMutability": "view",
      "type": "function"
    },
    {
      "inputs": [
        {
          "internalType": "bytes32",
          "name": "_roomId",
          "type": "bytes32"
        }
      ],
      "name": "getRoomDetails",
      "outputs": [
        {
          "internalType": "address",
          "name": "creator",
          "type": "address"
        },
        {
          "internalType": "uint256",
          "name": "buyIn",
          "type": "uint256"
        },
        {
          "internalType": "uint256",
          "name": "pot",
          "type": "uint256"
        },
        {
          "internalType": "uint256",
          "name": "maxPlayers",
          "type": "uint256"
        },
        {
          "internalType": "uint256",
          "name": "currentPlayers",
          "type": "uint256"
        },
        {
          "internalType": "enum TeenPattiGame.GameState",
          "name": "state",
          "type": "uint8"
        },
        {
          "internalType": "address",
          "name": "winner",
          "type": "address"
        }
      ],
      "stateMutability": "view",
      "type": "function"
    },
    {
      "inputs": [
        {
          "internalType": "bytes32",
          "name": "_roomId",
          "type": "bytes32"
        }
      ],
      "name": "getRoomPlayers",
      "outputs": [
        {
          "internalType": "address[]",
          "name": "",
          "type": "address[]"
        }
      ],
      "stateMutability": "view",
      "type": "function"
    },
    {
      "inputs": [],
      "name": "getTotalRakeCollected",
      "outputs": [
        {
          "internalType": "uint256",
          "name": "",
          "type": "uint256"
        }
      ],
      "stateMutability": "view",
      "type": "function"
    },
    {
      "inputs": [
        {
          "internalType": "bytes32",
          "name": "_roomId",
          "type": "bytes32"
        }
      ],
      "name": "handleTimeout",
      "outputs": [],
      "stateMutability": "nonpayable",
      "type": "function"
    },
    {
      "inputs": [
        {
          "internalType": "bytes32",
          "name": "_roomId",
          "type": "bytes32"
        }
      ],
      "name": "joinRoom",
      "outputs": [],
      "stateMutability": "nonpayable",
      "type": "function"
    },
    {
      "inputs": [
        {
          "internalType": "bytes32",
          "name": "_roomId",
          "type": "bytes32"
        }
      ],
      "name": "leaveRoom",
      "outputs": [],
      "stateMutability": "nonpayable",
      "type": "function"
    },
    {
      "inputs": [],
      "name": "owner",
      "outputs": [
        {
          "internalType": "address",
          "name": "",
          "type": "address"
        }
      ],
      "stateMutability": "view",
      "type": "function"
    },
    {
      "inputs": [],
      "name": "pause",
      "outputs": [],
      "stateMutability": "nonpayable",
      "type": "function"
    },
    {
      "inputs": [],
      "name": "paused",
      "outputs": [
        {
          "internalType": "bool",
          "name": "",
          "type": "bool"
        }
      ],
      "stateMutability": "view",
      "type": "function"
    },
    {
      "inputs": [
        {
          "internalType": "bytes32",
          "name": "_roomId",
          "type": "bytes32"
        },
        {
          "internalType": "address",
          "name": "_player",
          "type": "address"
        },
        {
          "internalType": "uint256",
          "name": "_amount",
          "type": "uint256"
        }
      ],
      "name": "placeBet",
      "outputs": [],
      "stateMutability": "nonpayable",
      "type": "function"
    },
    {
      "inputs": [
        {
          "internalType": "address",
          "name": "",
          "type": "address"
        },
        {
          "internalType": "uint256",
          "name": "",
          "type": "uint256"
        }
      ],
      "name": "playerRooms",
      "outputs": [
        {
          "internalType": "bytes32",
          "name": "",
          "type": "bytes32"
        }
      ],
      "stateMutability": "view",
      "type": "function"
    },
    {
      "inputs": [],
      "name": "rakeFee",
      "outputs": [
        {
          "internalType": "uint256",
          "name": "",
          "type": "uint256"
        }
      ],
      "stateMutability": "view",
      "type": "function"
    },
    {
      "inputs": [
        {
          "internalType": "address",
          "name": "_token",
          "type": "address"
        },
        {
          "internalType": "uint256",
          "name": "_amount",
          "type": "uint256"
        }
      ],
      "name": "recoverTokens",
      "outputs": [],
      "stateMutability": "nonpayable",
      "type": "function"
    },
    {
      "inputs": [],
      "name": "renounceOwnership",
      "outputs": [],
      "stateMutability": "nonpayable",
      "type": "function"
    },
    {
      "inputs": [
        {
          "internalType": "bytes32",
          "name": "",
          "type": "bytes32"
        }
      ],
      "name": "rooms",
      "outputs": [
        {
          "internalType": "bytes32",
          "name": "roomId",
          "type": "bytes32"
        },
        {
          "internalType": "address",
          "name": "creator",
          "type": "address"
        },
        {
          "internalType": "uint256",
          "name": "buyIn",
          "type": "uint256"
        },
        {
          "internalType": "uint256",
          "name": "pot",
          "type": "uint256"
        },
        {
          "internalType": "uint256",
          "name": "maxPlayers",
          "type": "uint256"
        },
        {
          "internalType": "enum TeenPattiGame.GameState",
          "name": "state",
          "type": "uint8"
        },
        {
          "internalType": "address",
          "name": "winner",
          "type": "address"
        },
        {
          "internalType": "uint256",
          "name": "createdAt",
          "type": "uint256"
        },
        {
          "internalType": "uint256",
          "name": "finishedAt",
          "type": "uint256"
        }
      ],
      "stateMutability": "view",
      "type": "function"
    },
    {
      "inputs": [
        {
          "internalType": "bytes32",
          "name": "_roomId",
          "type": "bytes32"
        },
        {
          "internalType": "address[]",
          "name": "_players",
          "type": "address[]"
        },
        {
          "internalType": "uint256[]",
          "name": "_finalChips",
          "type": "uint256[]"
        }
      ],
      "name": "settleCashGame",
      "outputs": [],
      "stateMutability": "nonpayable",
      "type": "function"
    },
    {
      "inputs": [
        {
          "internalType": "bytes32",
          "name": "_roomId",
          "type": "bytes32"
        }
      ],
      "name": "startGame",
      "outputs": [],
      "stateMutability": "nonpayable",
      "type": "function"
    },
    {
      "inputs": [],
      "name": "token",
      "outputs": [
        {
          "internalType": "contract IERC20",
          "name": "",
          "type": "address"
        }
      ],
      "stateMutability": "view",
      "type": "function"
    },
    {
      "inputs": [],
      "name": "totalRakeCollected",
      "outputs": [
        {
          "internalType": "uint256",
          "name": "",
          "type": "uint256"
        }
      ],
      "stateMutability": "view",
      "type": "function"
    },
    {
      "inputs": [
        {
          "internalType": "address",
          "name": "newOwner",
          "type": "address"
        }
      ],
      "name": "transferOwnership",
      "outputs": [],
      "stateMutability": "nonpayable",
      "type": "function"
    },
    {
      "inputs": [],
      "name": "treasury",
      "outputs": [
        {
          "internalType": "address",
          "name": "",
          "type": "address"
        }
      ],
      "stateMutability": "view",
      "type": "function"
    },
    {
      "inputs": [],
      "name": "unpause",
      "outputs": [],
      "stateMutability": "nonpayable",
      "type": "function"
    },
    {
      "inputs": [
        {
          "internalType": "uint256",
          "name": "_newRakeFee",
          "type": "uint256"
        }
      ],
      "name": "updateRakeFee",
      "outputs": [],
      "stateMutability": "nonpayable",
      "type": "function"
    },
    {
      "inputs": [
        {
          "internalType": "address",
          "name": "_newTreasury",
          "type": "address"
        }
      ],
      "name": "updateTreasury",
      "outputs": [],
      "stateMutability": "nonpayable",
      "type": "function"
    }
  ],
  "bytecode": "0x60806040526101f46006553480156200001757600080fd5b5060405162003290380380620032908339810160408190526200003a91620001cb565b33806200006257604051631e4fbdf760e01b8152600060048201526024015b60405180910390fd5b6200006d816200015e565b50600180556001600160a01b038216620000ca5760405162461bcd60e51b815260206004820152601560248201527f496e76616c696420746f6b656e20616464726573730000000000000000000000604482015260640162000059565b6001600160a01b038116620001225760405162461bcd60e51b815260206004820152601860248201527f496e76616c696420747265617375727920616464726573730000000000000000604482015260640162000059565b60028054610100600160a81b0319166101006001600160a01b0394851602179055600780546001600160a01b0319169190921617905562000203565b600080546001600160a01b038381166001600160a01b0319831681178455604051919092169283917f8be0079c531659141344cd1fd0a4f28419497f9722a3daafe3b4186f6b6457e09190a35050565b80516001600160a01b0381168114620001c657600080fd5b919050565b60008060408385031215620001df57600080fd5b620001ea83620001ae565b9150620001fa60208401620001ae565b90509250929050565b61307d80620002136000396000f3fe608060405234801561001057600080fd5b50600436106101fb5760003560e01c806375870d651161011a578063aa34331b116100ad578063d7fbc2e41161007c578063d7fbc2e41461045a578063ea573265146104da578063f2fde38b146104ed578063f54fdb0014610500578063fc0c546a1461052057600080fd5b8063aa34331b14610418578063ab196acd14610421578063af8b9b1814610434578063bc0730e81461044757600080fd5b80638456cb59116100e95780638456cb59146103d757806385039bf6146103df5780638a8cefca146103f45780638da5cb5b1461040757600080fd5b806375870d651461038b578063763e5b481461039e578063775e729b146103b15780637f51bb1f146103c457600080fd5b806346bf746d1161019257806361d027b31161016157806361d027b3146103325780636e9359e41461035d578063715018a6146103705780637569a69e1461037857600080fd5b806346bf746d146102ee5780634b29b4c4146102f65780634c92fb12146103095780635c975abb1461031c57600080fd5b806322707265116101ce578063227072651461024d57806335f1e587146102605780633c7192c1146102d35780633f4ba83a146102e657600080fd5b8063069c9fae14610200578063099420b6146102155780631d4fd9611461023157806321fe77aa1461023a575b600080fd5b61021361020e366004612ac0565b610538565b005b61021e610e1081565b6040519081526020015b60405180910390f35b61021e60065481565b610213610248366004612aea565b61062a565b61021e61025b366004612aea565b6109e7565b6102c061026e366004612aea565b60009081526003602081905260409091206001810154918101546004820154600583015460028401546006909401546001600160a01b0395861696939592949193919260ff8216926101009092041690565b6040516102289796959493929190612b3b565b6102136102e1366004612aea565b610a08565b610213610c19565b60085461021e565b610213610304366004612aea565b610c2b565b610213610317366004612aea565b611017565b60025460ff166040519015158152602001610228565b600754610345906001600160a01b031681565b6040516001600160a01b039091168152602001610228565b61021361036b366004612b8b565b6111f1565b61021361153f565b610213610386366004612bb7565b611551565b610213610399366004612aea565b611755565b6102136103ac366004612cc2565b6119d6565b61021e6103bf366004612b8b565b61210a565b6102136103d2366004612d8d565b612137565b6102136121df565b6103e76121ef565b6040516102289190612daf565b6103e7610402366004612d8d565b612247565b6000546001600160a01b0316610345565b61021e60085481565b61021e61042f366004612df3565b6122b3565b610213610442366004612aea565b6126a6565b61021e610455366004612ac0565b6127c4565b6104c5610468366004612aea565b60036020819052600091825260409091208054600182015492820154600483015460058401546006850154600786015460089096015494966001600160a01b039081169694959394929360ff831693610100909304909116919089565b60405161022899989796959493929190612e15565b6102136104e8366004612aea565b6127f5565b6102136104fb366004612d8d565b61287e565b61051361050e366004612aea565b6128b9565b6040516102289190612eb6565b6002546103459061010090046001600160a01b031681565b610540612927565b6001600160a01b0382166105935760405162461bcd60e51b8152602060048201526015602482015274496e76616c696420746f6b656e206164647265737360581b60448201526064015b60405180910390fd5b816001600160a01b031663a9059cbb6105b46000546001600160a01b031690565b6040516001600160e01b031960e084901b1681526001600160a01b039091166004820152602481018490526044016020604051808303816000875af1158015610601573d6000803e3d6000fd5b505050506040513d601f19601f820116820180604052508101906106259190612ec9565b505050565b610632612954565b6000818152600360209081526040808320338452600a81019092529091205460ff166106935760405162461bcd60e51b815260206004820152601060248201526f4e6f7420696e207468697320726f6f6d60801b604482015260640161058a565b6000600682015460ff1660038111156106ae576106ae612b03565b146106f25760405162461bcd60e51b815260206004820152601460248201527311d85b5948185b1c9958591e481cdd185c9d195960621b604482015260640161058a565b336000908152600982016020526040902054806107485760405162461bcd60e51b8152602060048201526014602482015273139bc818985b185b98d9481d1bc81c99599d5b9960621b604482015260640161058a565b336000908152600a830160209081526040808320805460ff19169055600985019091528120819055600483018054839290610784908490612f01565b90915550600090505b600283015481101561089c57336001600160a01b03168360020182815481106107b8576107b8612f14565b6000918252602090912001546001600160a01b03160361088a576002830180546107e490600190612f01565b815481106107f4576107f4612f14565b6000918252602090912001546002840180546001600160a01b03909216918390811061082257610822612f14565b9060005260206000200160006101000a8154816001600160a01b0302191690836001600160a01b031602179055508260020180548061086357610863612f2a565b600082815260209020810160001990810180546001600160a01b031916905501905561089c565b8061089481612f40565b91505061078d565b5060025460405163a9059cbb60e01b8152336004820152602481018390526101009091046001600160a01b03169063a9059cbb906044016020604051808303816000875af11580156108f2573d6000803e3d6000fd5b505050506040513d601f19601f820116820180604052508101906109169190612ec9565b61095b5760405162461bcd60e51b81526020600482015260166024820152751499599d5b99081d1c985b9cd9995c8819985a5b195960521b604482015260640161058a565b604051818152339084907fcf0d7a42a42baf449dbf1a7c4b7b9a7f4bac3a411564ef0d46979e7fb9a59bfd9060200160405180910390a360028201546000036109d95760068201805460ff1916600317905560405183907ff89b62d5ed31af5007e4f697e3397fd9a3854dfecb25a7dd0c8d3d9bf8bd816890600090a25b50506109e460018055565b50565b600581815481106109f757600080fd5b600091825260209091200154905081565b610a10612954565b60008181526003602052604090206001600682015460ff166003811115610a3957610a39612b03565b14610a565760405162461bcd60e51b815260040161058a90612f59565b610e108160070154610a689190612f82565b421015610aad5760405162461bcd60e51b8152602060048201526013602482015272151a5b595bdd5d081b9bdd081c995858da1959606a1b604482015260640161058a565b60005b6002820154811015610bce576000826002018281548110610ad357610ad3612f14565b60009182526020909120015460038401546001600160a01b0390911691508015610bb95760025460405163a9059cbb60e01b81526001600160a01b038481166004830152602482018490526101009092049091169063a9059cbb906044016020604051808303816000875af1158015610b50573d6000803e3d6000fd5b505050506040513d601f19601f82011682018060405250810190610b749190612ec9565b610bb95760405162461bcd60e51b81526020600482015260166024820152751499599d5b99081d1c985b9cd9995c8819985a5b195960521b604482015260640161058a565b50508080610bc690612f40565b915050610ab0565b5060068101805460ff1916600317905560006004820181905560405183917ff89b62d5ed31af5007e4f697e3397fd9a3854dfecb25a7dd0c8d3d9bf8bd816891a2506109e460018055565b610c21612927565b610c2961297e565b565b610c33612954565b610c3b6129d0565b600081815260036020526040902060018101546001600160a01b0316610c995760405162461bcd60e51b8152602060048201526013602482015272149bdbdb48191bd95cc81b9bdd08195e1a5cdd606a1b604482015260640161058a565b6000600682015460ff166003811115610cb457610cb4612b03565b14610d015760405162461bcd60e51b815260206004820152601a60248201527f526f6f6d206e6f7420616363657074696e6720706c6179657273000000000000604482015260640161058a565b336000908152600a8201602052604090205460ff1615610d635760405162461bcd60e51b815260206004820152601860248201527f416c7265616479206a6f696e6564207468697320726f6f6d0000000000000000604482015260640161058a565b6005810154600282015410610da95760405162461bcd60e51b815260206004820152600c60248201526b149bdbdb481a5cc8199d5b1b60a21b604482015260640161058a565b60038101546002546040516370a0823160e01b81523360048201526101009091046001600160a01b0316906370a0823190602401602060405180830381865afa158015610dfa573d6000803e3d6000fd5b505050506040513d601f19601f82011682018060405250810190610e1e9190612f95565b1015610e6c5760405162461bcd60e51b815260206004820152601a60248201527f496e73756666696369656e7420746f6b656e2062616c616e6365000000000000604482015260640161058a565b60025460038201546040516323b872dd60e01b815233600482015230602482015260448101919091526101009091046001600160a01b0316906323b872dd906064016020604051808303816000875af1158015610ecd573d6000803e3d6000fd5b505050506040513d601f19601f82011682018060405250810190610ef19190612ec9565b610f355760405162461bcd60e51b8152602060048201526015602482015274151bdad95b881d1c985b9cd9995c8819985a5b1959605a1b604482015260640161058a565b600281018054600181810183556000928352602080842090920180546001600160a01b03191633908117909155600385018054918552600986018452604080862092909255600a86019093528320805460ff191690911790555460048301805491929091610fa4908490612f82565b9091555050336000818152600460209081526040808320805460018101825590845291909220018490556003830154905184917f65525cf08411b7a61d237681a43890956ad2e2ede88afd947f58eb4158c37f959161100591815260200190565b60405180910390a3506109e460018055565b61101f612954565b600081815260036020526040902060018101546001600160a01b031661107d5760405162461bcd60e51b8152602060048201526013602482015272149bdbdb48191bd95cc81b9bdd08195e1a5cdd606a1b604482015260640161058a565b60018101546001600160a01b03163314806110a257506000546001600160a01b031633145b6110df5760405162461bcd60e51b815260206004820152600e60248201526d139bdd08185d5d1a1bdc9a5e995960921b604482015260640161058a565b6000600682015460ff1660038111156110fa576110fa612b03565b1461113e5760405162461bcd60e51b815260206004820152601460248201527311d85b5948185b1c9958591e481cdd185c9d195960621b604482015260640161058a565b60028181015410156111925760405162461bcd60e51b815260206004820152601760248201527f4e656564206174206c65617374203220706c6179657273000000000000000000604482015260640161058a565b60068101805460ff191660011790556004810154600282015460408051928352602083019190915283917f38f56d43c299aca81fdefe3bba16676fb1482e023cd61ab890dfdb087117e9d3910160405180910390a2506109e460018055565b6111f9612954565b60008281526003602052604090206001600682015460ff16600381111561122257611222612b03565b1461123f5760405162461bcd60e51b815260040161058a90612f59565b6001600160a01b0382166000908152600a8201602052604090205460ff1661129e5760405162461bcd60e51b815260206004820152601260248201527157696e6e6572206e6f7420696e20726f6f6d60701b604482015260640161058a565b6004810154806112e75760405162461bcd60e51b81526020600482015260146024820152734e6f20706f7420746f206469737472696275746560601b604482015260640161058a565b6000612710600654836112fa9190612fae565b6113049190612fc5565b905060006113128284612f01565b6006850180546001600160a01b038881166101008181026001600160a81b03199094169390931760029081179094554260088a015560006004808b0191909155935460405163a9059cbb60e01b8152948501919091526024840185905293945092049091169063a9059cbb906044016020604051808303816000875af11580156113a0573d6000803e3d6000fd5b505050506040513d601f19601f820116820180604052508101906113c49190612ec9565b6114095760405162461bcd60e51b815260206004820152601660248201527515da5b9b995c881d1c985b9cd9995c8819985a5b195960521b604482015260640161058a565b81156114e85760025460075460405163a9059cbb60e01b81526001600160a01b03918216600482015260248101859052610100909204169063a9059cbb906044016020604051808303816000875af1158015611469573d6000803e3d6000fd5b505050506040513d601f19601f8201168201806040525081019061148d9190612ec9565b6114d05760405162461bcd60e51b815260206004820152601460248201527314985ad9481d1c985b9cd9995c8819985a5b195960621b604482015260640161058a565b81600860008282546114e29190612f82565b90915550505b60408051828152602081018490526001600160a01b0387169188917f29b433d2cb0c1f1a8245540e06ffe118d2013464095f475f9e057308c0f0bac7910160405180910390a35050505061153b60018055565b5050565b611547612927565b610c2960006129f4565b611559612954565b600083815260036020526040812090546001600160a01b031633146115c05760405162461bcd60e51b815260206004820152601b60248201527f4f6e6c79206261636b656e642063616e20706c61636520626574730000000000604482015260640161058a565b6001600682015460ff1660038111156115db576115db612b03565b146115f85760405162461bcd60e51b815260040161058a90612f59565b6001600160a01b0383166000908152600a8201602052604090205460ff166116575760405162461bcd60e51b8152602060048201526012602482015271506c61796572206e6f7420696e20726f6f6d60701b604482015260640161058a565b6001600160a01b03831660009081526009820160205260409020548211156116c15760405162461bcd60e51b815260206004820152601b60248201527f496e73756666696369656e7420706c617965722062616c616e63650000000000604482015260640161058a565b6001600160a01b0383166000908152600982016020526040812080548492906116eb908490612f01565b92505081905550818160040160008282546117069190612f82565b90915550506040518281526001600160a01b0384169085907fcd5f79909b53eb4c55b0a2d7004914519bad1e3ade1b3dae6005d528d83da31e9060200160405180910390a35061062560018055565b61175d612954565b6000818152600360209081526040808320338452600a81019092529091205460ff166117be5760405162461bcd60e51b815260206004820152601060248201526f4e6f7420696e207468697320726f6f6d60801b604482015260640161058a565b6001600682015460ff1660038111156117d9576117d9612b03565b146117f65760405162461bcd60e51b815260040161058a90612f59565b3360009081526009820160205260409020548061184e5760405162461bcd60e51b81526020600482015260166024820152754e6f2062616c616e636520746f20776974686472617760501b604482015260640161058a565b600061271061185f836103e8612fae565b6118699190612fc5565b905060006118778284612f01565b3360008181526009870160209081526040808320839055600a890190915290819020805460ff19169055600254905163a9059cbb60e01b815292935061010090046001600160a01b03169163a9059cbb916118ea9185906004016001600160a01b03929092168252602082015260400190565b6020604051808303816000875af1158015611909573d6000803e3d6000fd5b505050506040513d601f19601f8201168201806040525081019061192d9190612ec9565b6119795760405162461bcd60e51b815260206004820152601860248201527f5769746864726177207472616e73666572206661696c65640000000000000000604482015260640161058a565b8184600401600082825461198d9190612f82565b9091555050604051818152339086907fd3e69353709a7dcaab28b44353b592c552cd797c95ffb523f924c0a16b4a2c2b9060200160405180910390a3505050506109e460018055565b6119de612927565b6119e6612954565b60008381526003602052604090206001600682015460ff166003811115611a0f57611a0f612b03565b14611a2c5760405162461bcd60e51b815260040161058a90612f59565b8151835114611a755760405162461bcd60e51b8152602060048201526015602482015274082e4e4c2f240d8cadccee8d040dad2e6dac2e8c6d605b1b604482015260640161058a565b6000835111611abc5760405162461bcd60e51b8152602060048201526013602482015272139bc81c1b185e595c9cc81c1c9bdd9a591959606a1b604482015260640161058a565b600481015480611b055760405162461bcd60e51b81526020600482015260146024820152734e6f20706f7420746f206469737472696275746560601b604482015260640161058a565b6000805b8451811015611b4b57848181518110611b2457611b24612f14565b602002602001015182611b379190612f82565b915080611b4381612f40565b915050611b09565b5060008111611baa5760405162461bcd60e51b815260206004820152602560248201527f546f74616c206368697073206d7573742062652067726561746572207468616e604482015264207a65726f60d81b606482015260840161058a565b60005b8551811015611c485783600a016000878381518110611bce57611bce612f14565b6020908102919091018101516001600160a01b031682528101919091526040016000205460ff16611c365760405162461bcd60e51b8152602060048201526012602482015271506c61796572206e6f7420696e20726f6f6d60701b604482015260640161058a565b80611c4081612f40565b915050611bad565b50600061271060065484611c5c9190612fae565b611c669190612fc5565b90506000611c748285612f01565b90506000875167ffffffffffffffff811115611c9257611c92612bec565b604051908082528060200260200182016040528015611cbb578160200160208202803683370190505b50905060008089600081518110611cd457611cd4612f14565b60200260200101519050600089600081518110611cf357611cf3612f14565b6020026020010151905060005b8b51811015611ed257818b8281518110611d1c57611d1c612f14565b60200260200101511115611d63578a8181518110611d3c57611d3c612f14565b602002602001015191508b8181518110611d5857611d58612f14565b602002602001015192505b6000888c8381518110611d7857611d78612f14565b602002602001015188611d8b9190612fae565b611d959190612fc5565b905080868381518110611daa57611daa612f14565b6020908102919091010152611dbf8186612f82565b94508015611ebf57600260019054906101000a90046001600160a01b03166001600160a01b031663a9059cbb8e8481518110611dfd57611dfd612f14565b6020026020010151836040518363ffffffff1660e01b8152600401611e379291906001600160a01b03929092168252602082015260400190565b6020604051808303816000875af1158015611e56573d6000803e3d6000fd5b505050506040513d601f19601f82011682018060405250810190611e7a9190612ec9565b611ebf5760405162461bcd60e51b8152602060048201526016602482015275141b185e595c881d1c985b9cd9995c8819985a5b195960521b604482015260640161058a565b5080611eca81612f40565b915050611d00565b506000611edf8487612f01565b90508015611fa75760025460405163a9059cbb60e01b81526001600160a01b038581166004830152602482018490526101009092049091169063a9059cbb906044016020604051808303816000875af1158015611f40573d6000803e3d6000fd5b505050506040513d601f19601f82011682018060405250810190611f649190612ec9565b611fa75760405162461bcd60e51b8152602060048201526014602482015273111d5cdd081d1c985b9cd9995c8819985a5b195960621b604482015260640161058a565b86156120865760025460075460405163a9059cbb60e01b81526001600160a01b039182166004820152602481018a9052610100909204169063a9059cbb906044016020604051808303816000875af1158015612007573d6000803e3d6000fd5b505050506040513d601f19601f8201168201806040525081019061202b9190612ec9565b61206e5760405162461bcd60e51b815260206004820152601460248201527314985ad9481d1c985b9cd9995c8819985a5b195960621b604482015260640161058a565b86600860008282546120809190612f82565b90915550505b60068a0180546001600160a01b038516610100026001600160a81b03199091161760021790554260088b0155600060048b01556040518d907f05d24d611c29e8527295fd44311d7bdcb9d1ab4e6e185ac308025286fcb701b7906120ef908f9089908c90612fe7565b60405180910390a25050505050505050505061062560018055565b60008281526003602090815260408083206001600160a01b03851684526009019091529020545b92915050565b61213f612927565b6001600160a01b0381166121955760405162461bcd60e51b815260206004820152601860248201527f496e76616c696420747265617375727920616464726573730000000000000000604482015260640161058a565b600780546001600160a01b0319166001600160a01b0383169081179091556040517f7dae230f18360d76a040c81f050aa14eb9d6dc7901b20fc5d855e2a20fe814d190600090a250565b6121e7612927565b610c29612a44565b6060600580548060200260200160405190810160405280929190818152602001828054801561223d57602002820191906000526020600020905b815481526020019060010190808311612229575b5050505050905090565b6001600160a01b0381166000908152600460209081526040918290208054835181840281018401909452808452606093928301828280156122a757602002820191906000526020600020905b815481526020019060010190808311612293575b50505050509050919050565b60006122bd612954565b6122c56129d0565b600083116123155760405162461bcd60e51b815260206004820152601760248201527f4275792d696e206d75737420626520706f736974697665000000000000000000604482015260640161058a565b60028210158015612327575060068211155b6123695760405162461bcd60e51b8152602060048201526013602482015272496e76616c6964206d617820706c617965727360681b604482015260640161058a565b6002546040516370a0823160e01b8152336004820152849161010090046001600160a01b0316906370a0823190602401602060405180830381865afa1580156123b6573d6000803e3d6000fd5b505050506040513d601f19601f820116820180604052508101906123da9190612f95565b10156124285760405162461bcd60e51b815260206004820152601a60248201527f496e73756666696369656e7420746f6b656e2062616c616e6365000000000000604482015260640161058a565b6040516bffffffffffffffffffffffff193360601b16602082015242603482015244605482015260009060740160408051808303601f19018152828252805160209182012062ffffff60e01b8116600081815260039384905293909320838155600181018054336001600160a01b031990911681179091559281018990556005810188905560068101805460ff191690554260078201556002546323b872dd60e01b865260048601939093523060248601526044850189905290945091926001600160a01b0361010090920491909116906323b872dd906064016020604051808303816000875af1158015612521573d6000803e3d6000fd5b505050506040513d601f19601f820116820180604052508101906125459190612ec9565b6125895760405162461bcd60e51b8152602060048201526015602482015274151bdad95b881d1c985b9cd9995c8819985a5b1959605a1b604482015260640161058a565b600281018054600180820183556000928352602080842090920180546001600160a01b0319163390811790915580845260098501835260408085208b9055600a86018452808520805460ff19168417905560048087018c9055600580548086019091557f036b6384b5eca791c62761152d0c79bb0604c104a5fb6f4eb0703f3154bb3db00188905584528085208054938401815585529383902090910185905582518981529182018890529184917f7205d4960f11b42d9694576da1d12e22b637d2eaac623cc7a27f41509be13523910160405180910390a3604051868152339083907f65525cf08411b7a61d237681a43890956ad2e2ede88afd947f58eb4158c37f959060200160405180910390a35091505061213160018055565b60008181526003602052604090206002600682015460ff1660038111156126cf576126cf612b03565b14806126f357506003600682015460ff1660038111156126f1576126f1612b03565b145b6127335760405162461bcd60e51b815260206004820152601160248201527011d85b59481b9bdd08199a5b9a5cda1959607a1b604482015260640161058a565b60018101546001600160a01b031633148061275857506000546001600160a01b031633145b6127955760405162461bcd60e51b815260206004820152600e60248201526d139bdd08185d5d1a1bdc9a5e995960921b604482015260640161058a565b60405182907ff89b62d5ed31af5007e4f697e3397fd9a3854dfecb25a7dd0c8d3d9bf8bd816890600090a25050565b600460205281600052604060002081815481106127e057600080fd5b90600052602060002001600091509150505481565b6127fd612927565b6103e88111156128435760405162461bcd60e51b81526020600482015260116024820152700a4c2d6ca40cccaca40e8dede40d0d2ced607b1b604482015260640161058a565b60068190556040518181527f6b845bb86927d69db9a0fd7699fedbadfd7c12ad26d8cf7490c7fb8348ca958e9060200160405180910390a150565b612886612927565b6001600160a01b0381166128b057604051631e4fbdf760e01b81526000600482015260240161058a565b6109e4816129f4565b6000818152600360209081526040918290206002018054835181840281018401909452808452606093928301828280156122a757602002820191906000526020600020905b81546001600160a01b031681526001909101906020018083116128fe5750505050509050919050565b6000546001600160a01b03163314610c295760405163118cdaa760e01b815233600482015260240161058a565b60026001540361297757604051633ee5aeb560e01b815260040160405180910390fd5b6002600155565b612986612a81565b6002805460ff191690557f5db9ee0a495bf2e6ff9c91a7834c1ba4fdd244a5e8aa4e537bd38aeae4b073aa335b6040516001600160a01b03909116815260200160405180910390a1565b60025460ff1615610c295760405163d93c066560e01b815260040160405180910390fd5b600080546001600160a01b038381166001600160a01b0319831681178455604051919092169283917f8be0079c531659141344cd1fd0a4f28419497f9722a3daafe3b4186f6b6457e09190a35050565b612a4c6129d0565b6002805460ff191660011790557f62e78cea01bee320cd4e420270b5ea74000d11b0c9f74754ebdbfc544b05a2586129b33390565b60025460ff16610c2957604051638dfc202b60e01b815260040160405180910390fd5b80356001600160a01b0381168114612abb57600080fd5b919050565b60008060408385031215612ad357600080fd5b612adc83612aa4565b946020939093013593505050565b600060208284031215612afc57600080fd5b5035919050565b634e487b7160e01b600052602160045260246000fd5b60048110612b3757634e487b7160e01b600052602160045260246000fd5b9052565b6001600160a01b0388811682526020820188905260408201879052606082018690526080820185905260e0820190612b7660a0840186612b19565b80841660c08401525098975050505050505050565b60008060408385031215612b9e57600080fd5b82359150612bae60208401612aa4565b90509250929050565b600080600060608486031215612bcc57600080fd5b83359250612bdc60208501612aa4565b9150604084013590509250925092565b634e487b7160e01b600052604160045260246000fd5b604051601f8201601f1916810167ffffffffffffffff81118282101715612c2b57612c2b612bec565b604052919050565b600067ffffffffffffffff821115612c4d57612c4d612bec565b5060051b60200190565b600082601f830112612c6857600080fd5b81356020612c7d612c7883612c33565b612c02565b82815260059290921b84018101918181019086841115612c9c57600080fd5b8286015b84811015612cb75780358352918301918301612ca0565b509695505050505050565b600080600060608486031215612cd757600080fd5b8335925060208085013567ffffffffffffffff80821115612cf757600080fd5b818701915087601f830112612d0b57600080fd5b8135612d19612c7882612c33565b81815260059190911b8301840190848101908a831115612d3857600080fd5b938501935b82851015612d5d57612d4e85612aa4565b82529385019390850190612d3d565b965050506040870135925080831115612d7557600080fd5b5050612d8386828701612c57565b9150509250925092565b600060208284031215612d9f57600080fd5b612da882612aa4565b9392505050565b6020808252825182820181905260009190848201906040850190845b81811015612de757835183529284019291840191600101612dcb565b50909695505050505050565b60008060408385031215612e0657600080fd5b50508035926020909101359150565b8981526001600160a01b038981166020830152604082018990526060820188905260808201879052610120820190612e5060a0840188612b19565b9490941660c082015260e0810192909252610100909101529695505050505050565b600081518084526020808501945080840160005b83811015612eab5781516001600160a01b031687529582019590820190600101612e86565b509495945050505050565b602081526000612da86020830184612e72565b600060208284031215612edb57600080fd5b81518015158114612da857600080fd5b634e487b7160e01b600052601160045260246000fd5b8181038181111561213157612131612eeb565b634e487b7160e01b600052603260045260246000fd5b634e487b7160e01b600052603160045260246000fd5b600060018201612f5257612f52612eeb565b5060010190565b6020808252600f908201526e47616d65206e6f742061637469766560881b604082015260600190565b8082018082111561213157612131612eeb565b600060208284031215612fa757600080fd5b5051919050565b808202811582820484141761213157612131612eeb565b600082612fe257634e487b7160e01b600052601260045260246000fd5b500490565b606081526000612ffa6060830186612e72565b82810360208481019190915285518083528682019282019060005b8181101561303157845183529383019391830191600101613015565b505080935050505082604083015294935050505056fea264697066735822122042255525031706f3a1aab4d021d843a2b93d253990210b3774d9484f7553414e64736f6c63430008140033",
  "linkReferences": {},
  "deployedLinkReferences": {}
}